:100000000C94AB020C94DC020C94DC020C94DC0229
:100010000C94DC020C94DC020C94DC020C94DC02E8
:100020000C94DC020C94DC020C94DC020C94DC02D8
:100030000C94DC020C94310C0C94DC020C94DC0269
:100040000C94DC020C94DC020C94DC020C94DC02B8
:100050000C94DC020C94DC020C94DC020C94E70B94
:100060000C94DC020C94DC020C94DC020C94DC0298
:100070000C94DC020C94DC020C94DC020C94DC0288
:100080000C94DC020C94DC020C94DC020C94DC0278
:100090000C94BB0C0C94910C0C94DC020C94DC02C0
:1000A0000C94DC020C94DC020C94DC020C94DC0258
:1000B0000C94DC020C94DC020C94DC020C94DC0248
:1000C0000C94DC020C94DC020C94DC020C94DC0238
:1000D0000C94DC020C94DC020C94DC020C94DC0228
:1000E0000C94DC020C9429030C9408060C9444062E
:1000F0000C941A030C9414030C943C070C944B03BB
:100100000C9439030C9458060C94F10C0C94580977
:100110000C9455030C9441030C9466060C944F0305
:100120000C9435060C9422030C949E060C945403F4
:100130000C9447030C942F030C943D030C94EB0692
:100140000C9433030C941E030C9459030C94260353
:100150000C943D0741554449543A200053544F52A2
:100160004147455F4641554C540050726573657276
:10017000766520454550524F4D0053544F524147EC
:1001800045204C4F434B4F5554004C4F434B4F551C
:10019000540053595354454D204C4F434B45440054
:1001A000546F74616C3A0020443A00433A00204294
:1001B0003A00413A0046494E414C20524553554C75
:1001C0005453004F6666696365723A204F70656EDE
:1001D00020506F6C6C00504F4C4C20434C4F53459B
:1001E0004400456E746572203420646967697473D5
:1001F000207468656E202300504F4C4C204F5045B2
:100200004E202D20564F5445522049440050494E0F
:100210003A2000434C4F534520504F4C4C205049FE
:100220004E004F50454E20504F4C4C2050494E00F0
:10023000424F4F540050455253495354454E542F4A
:1002400054414D50455200564F54452053544F523F
:1002500045440042414C4C4F545F41434345505448
:1002600045440054414D50455220494E505554008C
:1002700054414D50455220494E50555400504F4C1A
:100280004C5F434C4F53454400504F4C4C5F4F50D4
:10029000454E45440054727920616761696E2C2097
:1002A0007468656E202300494E56414C49442050E5
:1002B000494E004F4646494345525F415554485FB9
:1002C0004641494C00544852454520494E56414C00
:1002D00049442050494E530043616E64696461741F
:1002E000652000436F6E6669726D206F72204361F6
:1002F0006E63656C00434F4E4649524D2042414C5F
:100300004C4F543F0052656C6561736520616C6CA5
:100310002C207265747279004D554C5449504C45EF
:100320002052454A4543544544004D554C5449508C
:100330004C455F53454C454354494F4E0052656C04
:10034000656173652C207468656E20412D440053EF
:10035000454C454354204F4E450042494F4D45546E
:10036000524943204641494C0042494F4D45545261
:1003700049435F4641494C00536574206D61746385
:10038000682C207468656E20230042494F4D455407
:1003900052494300414C524541445920564F54451F
:1003A00044004455504C49434154455F41545445E1
:1003B0004D505400554E4B4E4F574E20564F5445BE
:1003C0005200554E4B4E4F574E5F564F54455200BC
:1003D00053455353494F4E5F43414E43454C4C4563
:1003E000440053455353494F4E5F54494D454F5573
:1003F00054004F666669636572206D757374206F73
:1004000070656E00504F4C4C20434C4F5345440098
:10041000504F4C4C5F434C4F5345445F52454A4507
:100420004354494F4E0054414D50455220494E507F
:1004300055540000002100240027002A002D003020
:1004400000330001010000040107010A010000203F
:10045000002300260029002C002F0032000001009C
:100460000003010601090100000A0B02090C0D0E30
:100470000807030401000000000000000000000065
:10048000000000000000000000000000000000006C
:100490000000001211100000000000000000000029
:1004A0000000000000000000000000000001021039
:1004B000202008081020401020408002010201087E
:1004C000040201010204081020408080402010082E
:1004D0000402018004020180402010080402010887
:1004E00004020101020408102040800102040810E7
:1004F00020408000002200250028002B002E003123
:1005000000340002010000050108010B010505058A
:1005100005070508080808020202020A0A0808047A
:1005200004040401010101010101010303030303A8
:10053000030303040707070C0C0C0C0C0C0C0C0237
:1005400002020206060606060606060B0B0B0B0B3E
:100550000B0B0B02F10C11241FBECFEFD1E2DEBF5B
:10056000CDBF00E00CBF12E0A0E0B2E0E8E5F4E2AD
:1005700000E00BBF02C007900D92A234B107D9F77B
:1005800023E0A2E4B2E001C01D92AE38B207E1F769
:1005900012E0CBEAD2E000E006C021970109802FEB
:1005A000FE010E941912CA3AD10780E00807A9F794
:1005B0000E943C0D0C942A120C940000FC01AC012A
:1005C000415F5F4F8FEF9FEF2191922728E0BC01A1
:1005D000880F991F77FF04C031E2832730E193270A
:1005E0002150A9F7E417F50779F708958150823172
:1005F00008F05AC0E82FF0E08827EE5FFC4F8F4FDD
:100600000C9419122203260314031A031E03540325
:1006100029032F03330339033D03410347034B03EE
:1006200054034F0355035903809180008F778093C3
:1006300080000895809180008F7DF9CF80918000A7
:10064000877FF5CF84B58F7784BD089584B58F7D7E
:10065000FBCF8091B0008F778093B0000895809198
:10066000B0008F7DF9CF809190008F7780939000BC
:100670000895809190008F7DF9CF80919000877FC1
:10068000F5CF8091A0008F778093A000089580918E
:10069000A0008F7DF9CF8091A000877FF5CF80915A
:1006A00020018F77809320010895809120018F7D14
:1006B000F9CF80912001877FF5CFCF93DF93282F4B
:1006C00030E0F901E959FB4F8491F901E355FB4F03
:1006D000D491F901E35FFA4FC491CC23A1F08111C9
:1006E0000E94F602EC2FF0E0EE0FFF1FE35BFB4FE2
:1006F000A591B491EC91ED2381E090E009F480E0C4
:10070000DF91CF91089580E090E0FACF1F93CF93CF
:10071000DF93282F30E0F901E959FB4F8491F9016B
:10072000E355FB4FD491F901E35FFA4FC491CC2319
:10073000A9F0162F81110E94F602EC2FF0E0EE0FC7
:10074000FF1FED50FB4FA591B4918FB7F894EC913A
:10075000111108C0D095DE23DC938FBFDF91CF91BC
:100760001F910895DE2BF8CFCF93DF9390E0FC012B
:10077000E355FB4F2491835F9A4FFC0184918823BA
:10078000D1F090E0880F991FFC01ED5CFB4FA59123
:10079000B491FC01ED50FB4FC591D491623071F4DE
:1007A0009FB7F8943C91822F809583238C93E881A6
:1007B0002E2B28839FBFDF91CF9108958FB7F89498
:1007C000EC912E2B2C938FBFF6CFCF93809102020A
:1007D000813321F08F3F59F1CF910895E3E5F5E0A2
:1007E000C491C7FDF9CF61E081E30E94B403CC233B
:1007F00009F4F0C0C23009F004C18091B100887FD3
:1008000083608093B10080E78093B3008FEF9FEF08
:10081000DC018093CD029093CE02A093CF02B093DF
:10082000D00280917000826080937000D5CF81E308
:1008300080930202E3E5F5E0C4918C2FCF3F61F293
:10084000C23009F468C060F4CC2379F1C13009F4F6
:1008500044C087FDC1CF61E081E30E94B403CACFE9
:10086000C43009F499C008F478C0C53091F71092EB
:100870002001109221018091210188608093210143
:1008800080912101816080932101EEE3F5E0E49104
:10089000F0E0EE0FFF1FED50FB4F85919491EEEDD0
:1008A000F4E0E491E093B9029ECF14BC15BC84B58A
:1008B000826084BD85B5816085BDEEE3F5E0E4919D
:1008C000F0E0EE0FFF1FED50FB4F85919491EEEDA0
:1008D000F4E0E491E093C00286CF10928000109281
:1008E00081008091810088608093810080918100E7
:1008F000816080938100EEE3F5E0E491F0E0EE0F9B
:10090000FF1FED50FB4F85919491EEEDF4E0E491E3
:10091000E093BF0268CF1092B0001092B1008091B6
:10092000B00082608093B0008091B10081608093BC
:10093000B100EEE3F5E0E491F0E0EE0FFF1FED50C3
:10094000FB4F859194919093BE028093BD02EEED92
:10095000F4E0E491E093BC0246CF10929000109234
:100960009100809191008860809391008091910026
:10097000816080939100EEE3F5E0E491F0E0EE0F0A
:10098000FF1FED50FB4F85919491EEEDF4E0E49163
:10099000E093BB02C3E027CF1092A0001092A10009
:1009A0008091A10088608093A1008091A100816066
:1009B0008093A100EEE3F5E0E491F0E0EE0FFF1F7D
:1009C000ED50FB4F85919491EEEDF4E0E491E093CE
:1009D000BA0209CF85B5887F836085BD87E387BD6F
:1009E0008FEF9FEFDC018093D5029093D602A09306
:1009F000D702B093D80280916E00826080936E001F
:100A0000EBCEC130E9F480918100887F81608093D2
:100A1000810083E39EE090938900809388008FEFAC
:100A20009FEFDC018093D1029093D202A093D30276
:100A3000B093D40280916F00826080936F00CCCE1F
:100A4000C330E9F480919100887F816080939100A8
:100A500083E39EE090939900809398008FEF9FEF3F
:100A6000DC018093C9029093CA02A093CB02B09399
:100A7000CC0280917100826080937100ADCEC43051
:100A8000E9F48091A100887F81608093A10083E3D5
:100A90009EE09093A9008093A8008FEF9FEFDC0168
:100AA0008093C5029093C602A093C702B093C80278
:100AB000809172008260809372008ECEC530E9F41E
:100AC00080912101887F81608093210183E39EE0F2
:100AD00090932901809328018FEF9FEFDC01809391
:100AE000C1029093C202A093C302B093C40280914A
:100AF00073008260809373006FCEC23091F034F443
:100B0000CC2369F0C13009F067CE83CFC43009F43B
:100B1000BECF0CF49DCFC53009F05ECED7CF83E3B6
:100B20005ECF83E371CE2FB7F8946091B5027091D8
:100B3000B6028091B7029091B8022FBF08959091AC
:100B4000020289130DC0E3E5F5E0E4919FEF909375
:100B50000202E230E1F038F4EE2381F0E13089F076
:100B600060E00C948603E43049F110F1E530C1F700
:100B7000909173009D7F90937300F2CF10926E005E
:100B8000EFCF90916F009D7F90936F00E9CF909190
:100B900070009D7F9093700091E09093B0009091D1
:100BA000B100987F94609093B1001092B300D8CFB9
:100BB000909171009D7F90937100D2CF90917200BF
:100BC0009D7F90937200CCCFEF92FF920F931F9373
:100BD000CF93DF938C017B01D0E0C0E0F701EC0FF5
:100BE000FD1F6491662361F0D801ED91FC910190A5
:100BF000F081E02DC8011995892B11F02196EECFD7
:100C0000CE01DF91CF911F910F91FF90EF9008954A
:100C1000AF92BF92CF92DF92EF92FF920F931F930A
:100C2000CF93DF936C017B018B01040F151FEB0148
:100C30005E01AE18BF08C017D10759F06991D601FF
:100C4000ED91FC910190F081E02DC6011995892B61
:100C500079F7C501DF91CF911F910F91FF90EF9030
:100C6000DF90CF90BF90AF900895FC01538D448DDD
:100C7000252F30E0842F90E0821B930B541710F047
:100C8000CF96089501970895FC01918D828D981754
:100C900061F0A28DAE0FBF2FB11D5D968C91928D2C
:100CA0009F5F9F73928F90E008958FEF9FEF08955D
:100CB000FC01918D828D981731F0828DE80FF11D26
:100CC000858D90E008958FEF9FEF0895FC01918D41
:100CD000228D892F90E0805C9F4F821B91098F733A
:100CE0009927089589ED92E00E94660621E0892BFC
:100CF00009F420E0822F0895FC01A48DA80FB92FDC
:100D0000B11DA35ABF4F2C91848D90E001968F7333
:100D10009927848FA689B7892C93A089B1898C9152
:100D2000837080648C93938D848D981306C00288A1
:100D3000F389E02D80818F7D80830895EF92FF926B
:100D40000F931F93CF93DF93EC0181E0888F9B8DEE
:100D50008C8D98131AC0E889F989808185FF15C0A8
:100D60009FB7F894EE89FF896083E889F9898081CB
:100D70008370806480839FBF81E090E0DF91CF919A
:100D80001F910F91FF90EF900895F62E0B8D10E0BC
:100D90000F5F1F4F0F731127E02E8C8D8E110CC02B
:100DA0000FB607FCFACFE889F989808185FFF5CF76
:100DB000CE010E947C06F1CFEB8DEC0FFD2FF11DD3
:100DC000E35AFF4FF0829FB7F8940B8FEA89FB89B3
:100DD00080818062CFCFCF93DF93EC01888D882311
:100DE000B9F0AA89BB89E889F9898C9185FD03C08E
:100DF000808186FD0DC00FB607FCF7CF8C9185FF73
:100E0000F2CF808185FFEDCFCE010E947C06E9CF35
:100E1000DF91CF91089580E090E0892B49F080E048
:100E200090E0892B29F00E94000081110E940000AF
:100E300080E090E0892B29F00E94720681110E94C7
:100E4000000080E090E0892B49F080E090E0892B61
:100E500029F00E94000081110E94000080E090E0D3
:100E6000892B49F080E090E0892B29F00E94000056
:100E700081110C9400000895089590E080E0089599
:100E80008FEF80930102809300021092460210922D
:100E90005C021092530208950F931F93CF93DF9338
:100EA000EC011E828881861739F068830E949305C1
:100EB0006A837B838C839D83998188819817B1F0A5
:100EC0000E9493050A811B812C813D81601B710B5F
:100ED000820B930B6E3171058105910538F0988175
:100EE000998381E0911101C080E08E83DF91CF91E1
:100EF0001F910F910895EAE4F2E090E080E02191E3
:100F00002B3008F05AC0820F911D22E0EE34F20718
:100F1000B1F7E0914702E33008F04FC0309148024A
:100F2000343008F04AC020914902223008F045C010
:100F3000333019F4222309F440C020914F0230913C
:100F40005002A90144275C7F452BB9F5409151021D
:100F500050915202BA0166277C7F672B71F5BA0166
:100F60006095709562237323672B39F560914E026B
:100F70006817190611F560E02115310531F0722F5F
:100F80007170670F36952795F7CF68171906A9F482
:100F90009A0160E02115310531F0722F7170670FF1
:100FA00036952795F7CF6817190638F0E11107C075
:100FB000892B19F481E0452B09F080E0089581E048
:100FC0000895CF93DF93EC0160E08E810E94860349
:100FD00061E08E810E94860360E08E810E9486031C
:100FE0008BE891E00197F1F7DF91CF910895CF92CF
:100FF000DF92EF92FF920F931F93CF93DF936C01D9
:101000007C0187E0E80EF11CD0E0C0E0062F10E084
:10101000B8010C2E02C0759567950A94E2F76170CD
:10102000F70181917F010E9486032196C430D1058A
:1010300079F7C601DF91CF911F910F91FF90EF904B
:10104000DF90CF900C94E107CF92DF92EF92FF9266
:101050000F931F93CF93DF93EC01F62E642F8C81B7
:101060000E9486038D818F3F19F060E00E94860305
:101070000F2D10E08F8584FF25C06E0187E0C80E1C
:10108000D11CF12CE12CB8010E2C02C0759567958E
:101090000A94E2F76170F60181916F010E94860364
:1010A000FFEFEF1AFF0A88E0E816F10461F7CE01BE
:1010B000DF91CF911F910F91FF90EF90DF90CF9034
:1010C0000C94E107B80184E0759567958A95E1F77E
:1010D000CE010E94F7076F2DCE01DF91CF911F91B6
:1010E0000F91FF90EF90DF90CF900C94F70740E0C6
:1010F000682F86E793E00C942408CF93DF93613048
:1011000029F09091850398609093850360938903FB
:1011100010928A0390E490938B0380938C03805CFD
:1011200080938D0361E080917A030E94B4038091E3
:101130007B038F3F19F061E00E94B40361E080916E
:101140007C030E94B403C6E7D3E09E0126573340D8
:101150008091850384FD0BC084E090E021962817E0
:10116000390744F461E08E810E94B403EECF88E039
:1011700090E0F4CF8BE39DE00197F1F760E0809180
:101180007A030E94860360E080917C030E948603BC
:1011900080917B038F3F19F060E00E94860380916D
:1011A000850384FD39C063E086E793E00E94F7077A
:1011B000CBE4D6E4CE010197F1F763E086E793E054
:1011C0000E94F7072197F1F763E086E793E00E941A
:1011D000F70783E592E00197F1F762E086E793E095
:1011E0000E94F7078091850380620E94770884E05F
:1011F000809386038CE00E94770881E00E94770844
:101200008BE39FE10197F1F782E08093870386E00B
:10121000DF91CF910C94770880620E9477088BE46D
:1012200096E40197F1F78091850380620E94770828
:1012300083E592E00197F1F78091850380620E9437
:101240007708D0CF90918903891710F08FEF890F1D
:10125000E82FF0E0EA58FC4F848980680C94770806
:101260000F931F93CF93DF938C01EB0181E00E94DA
:1012700077088BE39FE10197F1F780E00E94220954
:10128000B80186E793E00E94E405209761F081E0D1
:101290000E942209BE0186E793E0DF91CF911F9162
:1012A0000F910C94E405DF91CF911F910F91089558
:1012B00041E00E94240881E090E008950F931F937D
:1012C000CF9381E00E9422096DE072E086E793E00F
:1012D0000E94E40503E512E0C0E080915C026FE546
:1012E000C81710F4F801608141E086E793E00E949E
:1012F0002408CF5F0F5F1F4FC43079F7CF911F9144
:101300000F9108951F93CF93DF931091AF028A320C
:1013100059F410925C0210925302123079F5DF9169
:10132000CF911F910C945E0990ED980F9A30A8F719
:10133000D82FC0915C02C1111BC0133051F40E9420
:101340009305609358027093590280935A029093C8
:101350005B0291E09C0F90935C02EC2FF0E0ED5A61
:10136000FD4FD083E92FF0E0ED5AFD4F1082D5CF2D
:10137000C43078F385E080935C02CFCFDF91CF91CA
:101380001F910895CF93C82F0E944007C093430236
:1013900082E08093AF020E9493056093580270939D
:1013A000590280935A0290935B0283E192E0CC232E
:1013B00011F082E292E070E060E00E943009CF918B
:1013C0000C945E09CF92DF92EF92FF920F931F93DE
:1013D000CF93DF93CDB7DEB7A1970FB6F894DEBFFA
:1013E0000FBECDBF282F30E050E040E019A28E01A3
:1013F0000F5D1F4F8AE0C82ED12CE12CF12CCA01C1
:10140000B901A70196010E94F711605DF80162938E
:101410008F01211531054105510589F790E080E0E4
:10142000309761F001900020E9F73197AF01401B40
:10143000510BB80186E793E00E940806A1960FB60B
:10144000F894DEBF0FBECDBFDF91CF911F910F91FA
:10145000FF90EF90DF90CF90089560E08EE20E94C1
:10146000860360E080E30E94860380914702823019
:1014700009F044C087E08093AF0270E060E085EB44
:1014800091E00E94300981E00E94220962EB71E044
:1014900086E793E00E94E40580914A020E94E209F7
:1014A0006EEA71E086E793E00E94E40580914B02CA
:1014B0000E94E20982E00E9422096BEA71E086E75D
:1014C00093E00E94E40580914C020E94E20967EAE1
:1014D00071E086E793E00E94E40580914D020E944E
:1014E000E20983E00E94220960EA71E086E793E066
:1014F0000E94E40580914E020C94E209813049F487
:1015000083E08093AF0262EE71E088EF91E00C948B
:10151000300981E08093AF0263EC71E086ED91E0E9
:10152000F6CFCF93DF93EC0164E571E089ED92E0B3
:101530000E94E405BE0189ED92E00E94E40542E0CC
:1015400050E069E372E089ED92E0DF91CF910C9475
:101550000806EF92FF920F931F93CF937C018B01AC
:10156000C42F0E944007C7010E94910A70E060E00A
:10157000C8010E94300983E08093AF0281E080932C
:10158000A7020E9493056093A3027093A402809324
:10159000A5029093A6026C2F8EE20E94860360E063
:1015A00080E3CF911F910F91FF90EF900C948603F1
:1015B0001092420288E08093AF0261E08FE20E94C5
:1015C000860360E08EE20E94860360E080E30E9472
:1015D00086030E94E5036AE671E08AE791E00E94D3
:1015E00030098CE591E00C94910AFF920F931F93C0
:1015F000CF93DF93EC01F62E08811981C8010E9478
:10160000E111F81621F06F2DC8010E94E911CE01F9
:10161000DF91CF911F910F91FF900895AF92BF92EC
:10162000DF92EF92FF920F931F93CF93DF93CDB78B
:10163000DEB763970FB6F894DEBF0FBECDBF8091C3
:101640004202882329F00E947B07D82E811114C002
:101650000E94D80AD12C8D2D63960FB6F894DEBF68
:101660000FBECDBFDF91CF911F910F91FF90EF90F3
:10167000DF90BF90AF90089585E5898380E88A83E5
:1016800082E08B83809147028C83809148028D8316
:10169000809149028E8380914A028F8380914B0210
:1016A000888780914C02898780914D028A8780913A
:1016B0004E028B8790914F02809150029C878D87BC
:1016C00090915102809152029E878F87CE010196A0
:1016D0000E94DE02888B998B8FE190E09B8B8A8B36
:1016E00060E0CE0142960E94F50A8E010F5F1F4F07
:1016F000580190E2E92EF12CF50161915F01FB8A1E
:10170000EA8ACE0142960E94F50AFFEFEF1AFF0A1D
:1017100081E3E816F10481F780E2E82EF12CC7019D
:101720000E94E111F80191918F01981391CFFFEF81
:10173000EF1AFF0A81E3E816F10489F78FE190E0E0
:101740009B8B8A8B65EACE0142960E94F50A8FE157
:1017500090E00E94E111853A09F07ACF7CCFCF93D7
:10176000DF93EC0180914202811123C088E08093D5
:10177000AF028FEF80930102809300021092460225
:1017800061E08FE20E94860360E08EE20E948603A1
:1017900060E080E30E9486030E94E503BE0182E9C7
:1017A00091E00E9430098AE891E0DF91CF910C949A
:1017B000910A809149028111D9CF81E08093490239
:1017C0000E940E0B8111D2CFDF91CF9108951F920D
:1017D0000F920FB60F9211242F933F938F939F93E5
:1017E000AF93BF938091B5029091B602A091B702DA
:1017F000B091B8023091B40223E0230F2D3758F591
:101800000196A11DB11D2093B4028093B50290935F
:10181000B602A093B702B093B8028091B002909143
:10182000B102A091B202B091B3020196A11DB11D07
:101830008093B0029093B102A093B202B093B3022E
:10184000BF91AF919F918F913F912F910F900FBEBC
:101850000F901F90189526E8230F0296A11DB11D29
:10186000D2CF1F920F920FB60F9211240BB60F9288
:101870002F933F934F935F936F937F938F939F9398
:10188000AF93BF93EF93FF938091CD029091CE02DF
:10189000A091CF02B091D002892B8A2B8B2BE1F142
:1018A0009091BC02E091BD02F091BE028081892737
:1018B00080838091CD029091CE02A091CF02B09111
:1018C000D002181619061A061B069CF48091CD0248
:1018D0009091CE02A091CF02B091D0020197A109C0
:1018E000B1098093CD029093CE02A093CF02B09322
:1018F000D002FF91EF91BF91AF919F918F917F9116
:101900006F915F914F913F912F910F900BBE0F9070
:101910000FBE0F901F901895809102020E949F05A4
:10192000E8CF1F920F920FB60F9211240BB60F92B1
:101930002F933F934F935F936F937F938F939F93D7
:10194000AF93BF93EF93FF9389ED92E00E947C06E3
:10195000FF91EF91BF91AF919F918F917F916F9187
:101960005F914F913F912F910F900BBE0F900FBE43
:101970000F901F9018951F920F920FB60F9211247F
:101980000BB60F922F938F939F93EF93FF93E0915A
:10199000E902F091EA028081E091EF02F091F00219
:1019A00082FD1DC090818091F2028F5F8F73209124
:1019B000F302821741F0E091F202F0E0E752FD4FAE
:1019C000958F8093F202FF91EF919F918F912F91CC
:1019D0000F900BBE0F900FBE0F901F901895808137
:1019E000F2CFE9EDF2E01382128288EE93E0A0E0FC
:1019F000B0E084839583A683B7838FE192E09183DF
:101A000080838DEC90E0958784878CEC90E09787BD
:101A1000868788EC90E0918B808B89EC90E0938BAB
:101A2000828B8AEC90E0958B848B8EEC90E0978B88
:101A3000868B118E128E138E148EE6E7F3E01382DE
:101A4000128281E392E09183808386E184838FEF29
:101A5000858387E1868388E1878389E180878AE1BE
:101A600081878BE1828713861486158616861786F2
:101A700061E080E10C947D08CF93DF93CDB7DEB7B2
:101A800062970FB6F894DEBF0FBECDBF789484B5D1
:101A9000826084BD84B5816084BD85B5826085BD6A
:101AA00085B5816085BD80916E00816080936E00F8
:101AB00010928100809181008260809381008091EA
:101AC000810081608093810080918000816080939B
:101AD00080008091B10084608093B1008091B0005B
:101AE00081608093B000809191008260809391002A
:101AF000809191008160809391008091900081603D
:101B0000809390008091A10082608093A1008091D9
:101B1000A10081608093A1008091A00081608093EA
:101B2000A000809121018260809321018091210198
:101B30008160809321018091200181608093200148
:101B400080917A00846080937A0080917A0082602C
:101B500080937A0080917A00816080937A008091EE
:101B60007A00806880937A001092C1001092AF02D0
:101B70000E9440071092A7021092420223EA32E02C
:101B8000EDE5F2E087E0DF01482F1D924A95E9F785
:101B900037962E173F07B9F7E8EAF2E0DF011D920A
:101BA0008A95E9F7E091E902F091EA0282E0808308
:101BB000E091E502F091E6021082E091E702F091F7
:101BC000E8028FEC80831092F102E091ED02F09137
:101BD000EE0286E08083E091EB02F091EC028081DE
:101BE00080618083E091EB02F091EC02808188605B
:101BF0008083E091EB02F091EC0280818068808329
:101C0000E091EB02F091EC0280818F7D808364E0B3
:101C100084E10E947D0807E112E062E0F801819111
:101C20008F010E94B403F2E00B311F07B1F703E10B
:101C300012E062E0D8018D918D010E94B403B2E000
:101C400007311B07B1F714E262E0812F0E94B40351
:101C50001F5F1E32C9F761E0812F0E94B40360E06C
:101C6000812F0E9486031F5F1233A9F781E30E9430
:101C70009F058FE190E00E94E111FF24F3948F3FD4
:101C800009F0F12C00E210E0C8010E94E1118F3F41
:101C900009F0F12C0F5F1F4F00341105A9F7FF2049
:101CA000C1F08CE0E7E4F2E0DF011D928A95E9F7EC
:101CB00081E0809342020E940E0B8823A1F1809163
:101CC0004902882309F47DC085E392E00E94AF0BAE
:101CD0002AC0FE0131967F0100E210E06F01C801C9
:101CE0000E94E111D7018D937D010F5F1F4F0133DA
:101CF0001105A9F78FE190E00E94E111853A89F47E
:101D00008981853571F48A81803859F48B818230DC
:101D100041F4C6010E94DE0228893989821793079F
:101D200009F10E94D80A5524539401E010E0B7E568
:101D30006B2EB2E07B2EB091AF02BA8BB83009F4B3
:101D4000CFC08DE20E945D03FDE5EF2EF2E0FF2E95
:101D5000A4E2DA2E892B09F041C086E294E00E94C9
:101D6000AF0BBEC08C81809347028D818093480267
:101D70008E81809349028F8180934A028885809367
:101D80004B02898580934C028A8580934D028B8516
:101D900080934E028C859D859093500280934F02D4
:101DA0008E859F8590935202809351020E947B07FB
:101DB00080934202811102C00E94D80A809142029F
:101DC0007CCF8DE20E945D03892B09F47DCF0E94B8
:101DD0002D0A80E392E00E94910AA5CF8D2D0E94EA
:101DE0005D0361E0892B09F060E0C7010E944C07A8
:101DF000D394E7E0EE0EF11CFEE2DF12EFCF77E1C5
:101E0000C72E72E0D72EE3E0AE2EE2E0BE2E312CDC
:101E1000412CD6012D906D0160E0822D0E94860339
:101E200061E0822D0E94B40353E1852E52E0952E8D
:101E3000EE24E394F12CF40181914F010E945D03A3
:101E4000892B31F4F7013197EA0DFB1D4080339463
:101E5000FFEFEF1AFF0A25E0E216F10461F762E0F6
:101E6000822D0E94B40334E0A30EB11C4BE152E07A
:101E70004C155D0571F651E0351629F04FE7442EFB
:101E8000311001C0412C642D88EA92E00E944C0779
:101E90008091AE02882329F08091A902F82E8F3715
:101EA00009F4F12C8A898730D9F08091A702882320
:101EB000D1F00E949305C090A302D090A402E090BC
:101EC000A502F090A6026C197D098E099F09603B5E
:101ED00074408105910520F01092A7020E942D0AFE
:101EE0000E940B0728CFBA89B130A9F480919402DF
:101EF000882321F081E00E94C209F2CFFF2081F304
:101F000080E194E00E94910A62EF73E084E094E043
:101F10000E943009E5CFEA89E33069F480915C02E0
:101F2000811109C0809186028823F9F00E94400740
:101F300080ED93E017C00E94930580905802909026
:101F40005902A0905A02B0905B02681979098A0977
:101F50009B09603375478105910520F30E94400776
:101F600082EE93E00E94910AB9CF2A89223009F0CB
:101F700050C0FF2009F4B4CF33E2F31621F08F2DC7
:101F80000E948209ADCF80915C02843031F56CE310
:101F900072E083E592E00E942112892BF1F4109205
:101FA000480280914302882399F081E080934702A0
:101FB0000E940E0B882309F493CF8091430288235B
:101FC00049F089E892E00E94910A0E94400786CF7A
:101FD00082E0ECCF8DE792E0F6CF809148028F5FF0
:101FE00080934802833018F085EC92E0B8CE0E94CE
:101FF0000E0B882309F474CF83EB92E00E94910AC0
:1020000010925C021092530265E972E087EA92E056
:102010007FCF4A89433009F05BC080919B028823BF
:1020200011F080E068CF53E2F51621F0FF2009F4AB
:1020300057CFA5CF80915C02843011F5E3E5F2E043
:1020400090E080E05AE04191589F9001599F300DF7
:102050001124C901C097840F911D47FD9A956E16F2
:102060007F0689F79C01295E33402A30310558F0FC
:1020700040E064EB73E082EC93E00E94A90A30CF69
:1020800090E080E0EFCF895E8093010220914F02C3
:102090003091500202C0369527958A95E2F740E0CC
:1020A00064E973E082EA93E020FDE7CF84E0809367
:1020B000AF020E9493056093580270935902809377
:1020C0005A0290935B0268E773E08AE893E020CFBE
:1020D0008A89843009F03FC093E2F91201CF8091E0
:1020E0008802882321F080918702811106C040E098
:1020F0006AE573E089E693E0C0CF50924602809192
:102100000102D80102C0AA0FBB1F8A95E2F7CD01D8
:102110002091510230915202822B932B90935202C4
:10212000809351020E940E0B882309F4D9CE85E0DA
:102130008093AF020E9493056093580270935902F6
:1021400080935A0290935B02109245026DE373E014
:102150008FE493E0DDCE8A898550823008F0C0CECE
:10216000EDE5F2E090E080E0D12CC12C282F308109
:10217000332339F0A801082E01C0440F0A94EAF76E
:10218000C42A3181332339F0A80102C0440F551FFE
:102190002A95E2F7D42A019637968430910531F7D3
:1021A0008C2D90E020E0009731F0382F3170230F14
:1021B00096958795F8CF223008F072C02D2D30E02B
:1021C00080E02115310531F0922F9170890F3695FD
:1021D0002795F7CF823008F063C0CC2009F484C083
:1021E000909145029923B1F1CD1034C0813091F521
:1021F0008DE5E82E82E0F82EB12CD70116968C9151
:10220000882309F1B0920002B6E0B093AF021092B9
:10221000440260E080E30E94860363EE72E085EF93
:1022200092E00E94300982E00E94220968ED72E08B
:1022300086E793E00E94E40541E061E46B0D86E7E8
:1022400093E00E942408B394E7E0EE0EF11CF4E062
:10225000BF12D3CF8091AF02863009F041CE80917A
:102260007902811106C080917A02811102C05092D8
:10227000440280914402882309F432CE80917F0287
:10228000882309F42DCECD102BCE809142028823D5
:1022900021F00E947B0781112CC00E94D80A20CE19
:1022A000F0904502F11006C0FF24F3945A8956308D
:1022B00009F0F12C8FEF8093000285E08093AF024C
:1022C000109245021092440261E080E30E9486036E
:1022D000FF2009F405CE8AE293E00E94910A65E0AE
:1022E00073E088E193E014CED1107ACF509245028A
:1022F00077CF8DE20E945D03892B19F480E792E08D
:102300002ECD809149028111EBCD80914702813021
:1023100009F0E6CD909101029A3008F0E1CD80916C
:102320004602882309F4DCCDE0910002E43008F095
:10233000D7CD80914E028A3008F0D2CD60914F0205
:10234000709150029B01092E02C0369527950A9480
:10235000E2F720FDC5CD4091510250915202092E65
:1023600002C0569547950A94E2F740FFB9CD98010F
:1023700002C0220F331F9A95E2F7262B372B30939A
:10238000500220934F020E2E000CFF0BE95BFD4F15
:1023900093819F5F93838F5F80934E020E940E0B09
:1023A000882309F49DCD8DE20E945D03892B19F4E9
:1023B00083E692E0D4CC41E067E472E083E592E00A
:1023C0005CCEF999FECF92BD81BDF89A992780B570
:1023D0000895262FF999FECF1FBA92BD81BD20BD69
:1023E0000FB6F894FA9AF99A0FBE01960895A1E2F1
:1023F0001A2EAA1BBB1BFD010DC0AA1FBB1FEE1F7F
:10240000FF1FA217B307E407F50720F0A21BB30BC9
:10241000E40BF50B661F771F881F991F1A9469F745
:1024200060957095809590959B01AC01BD01CF01A1
:102430000895EE0FFF1F881F8BBF0790F691E02DC8
:102440001994FB01DC018D91019080190110D9F3E1
:08245000990B0895F894FFCFE9
:10245800FFFFFF3132334134353642373839432AAA
:10246800302344202122231C1D1E1F000000009E33
:102478000608063506EB0666064406580600000000
:1024880000580908063D073C070D0A003535383065
:02249800000042
:00000001FF
